:020000040800F2
:1000000000500020F50A00083D0B00083D0B0008D9
:100010003D0B00083D0B00083D0B000800000000F0
:100020000000000000000000000000003D0B000880
:100030003D0B0008000000003D0B00083D0B0008D0
:100040003D0B00083D0B00083D0B00083D0B000870
:100050003D0B00083D0B00083D0B00083D0B000860
:100060003D0B00083D0B00083D0B00083D0B000850
:100070003D0B00083D0B00083D0B00083D0B000840
:100080003D0B00083D0B00083D0B00083D0B000830
:10009000610A00083D0B00083D0B00083D0B0008FD
:1000A0003D0B00083D0B00083D0B00083D0B000810
:1000B000B90600083D0B00083D0B00083D0B000889
:1000C0003D0B00083D0B00083D0B00083D0B0008F0
:1000D0003D0B00083D0B0008590500083D0B0008CA
:1000E0003D0B00083D0B00083D0B00080000000020
:1000F0000000000000000000000000000000000000
:0C01000000000000000000005FF808F1A3
:10010C0010B5054C237833B9044B13B10448AFF345
:10011C0000800123237010BD4C040020000000005F
:10012C000C01000808B5034B1BB103490348AFF39E
:10013C00008008BD00000000500400200C010008E5
:10014C0010B50A23044684B01A48ADF80E3000F0FE
:10015C00D9F90DF10D01207800F038FA00F0D2F940
:10016C00154800F0CFF90DF10D01607800F02EFA72
:10017C0000F0C8F9114800F0C5F90DF10D016088C7
:10018C0000F024FA00F0BEF90D4800F0BBF90DF1B7
:10019C000D01A08800F01AFA00F0B4F9094800F03B
:1001AC00B1F90DF10D01E08800F010FA00F0AAF998
:1001BC0004B010BDB40C0008C40C0008D00C00082E
:1001CC00DC0C0008E80C000810B5022882B048D0FE
:1001DC00042804463DD001280ED0294800F092F99D
:1001EC00204600F009FA00F08DF9264800F08AF953
:1001FC0000F004FB02B010BD234800F083F900218D
:10020C00084600F02BFB002000F01CFB00F004FB68
:10021C001E4800F077F9002000F03EFC00F0ECF9ED
:10022C0000F070F91A4800F06DF900F043FC00F092
:10023C00E3F900F067F9164800F064F900F034FCBB
:10024C0000F0DAF900F05EF90E4800F05BF902B04C
:10025C0010BD104800F056F9002000F0EFFB02B082
:10026C0010BD0D4800F04EF969460822002000F040
:10027C0043FB6846FFF764FF00F0C0FA02B010BD04
:10028C003C0D0008180D0008F40C0008080D0008BF
:10029C00F00C0008300D00081C0D000830B40024D0
:1002AC004FF41F053A4B3B49186882B040F00100EF
:1002BC00186058681A4601405960196821F0847119
:1002CC0021F480311960196821F480211960596872
:1002DC0021F4FE0159609D6000940194196841F469
:1002EC008031196003E0009BB3F5A06F09D013684F
:1002FC0003F400330193009B01330093019B002B0B
:10030C00F1D0234B1B6813F4003318BF0123019366
:10031C00019B012B06D04FF000621F4B9A6002B07C
:10032C0030BC70471D491A4B08681A4640F0100043
:10033C000860086820F003000860086840F00200BC
:10034C0008605968596059685960596841F480616E
:10035C005960596821F47C115960596841F4E811CD
:10036C005960196841F08071196013689B01FCD5C4
:10037C005368074923F003035360536843F00203A7
:10038C0053604B6803F00C03082BFAD1C3E700BF92
:10039C00001002400000FFF800ED00E000200240D9
:1003AC00114A536803F00C03082B0ED153685168A3
:1003BC00C3F38343C90303F1020310D552689203BC
:1003CC000DD40A4A02FB03F300E0084B064A084925
:1003DC005268C2F303128A5CD3400B617047054A22
:1003EC0002FB03F3F2E700BF0010024000127A0098
:1003FC000000002000093D0009490A4B8A6942F0BF
:10040C0010028A615A6822F440125A605A6842F407
:10041C0040125A605A6822F440025A60704700BF7A
:10042C0000100240001001404FF40052014B1A61C1
:10043C00704700BF001001404FF40052014B5A614D
:10044C00704700BF00100140224A30B440F27125C1
:10045C009169214B41F004019161D1691F4C41F428
:10046C000031D1611A681E4942F440721A601A6850
:10047C00442022F440621A601A6842F400621A6046
:10048C001A6822F440521A601A6822F440421A6028
:10049C005A6842F480425A600D818B89114A43F4A8
:1004AC00025343F00C038B8123680F4903E012F8CD
:1004BC00010F013B40B1C854002BF8D112F8010FC9
:1004CC0040F6FF730028F6D14021084A23605160A2
:1004DC0030BC70470010024000080140140000209E
:1004EC0000440040500D00087404002000E100E0BE
:1004FC00034B1A88120644BF80B29880704700BF25
:10050C00004400400278BAB110B40D4C0D49236878
:10051C0003E010F8012F013B42B1CA54002BF8D173
:10052C0010F8012F40F6FF73002AF6D14022236009
:10053C00054B10BC5A6070474022034B5A60704701
:10054C00140000207404002000E100E00D4BD3E9FE
:10055C00001291420DD00C49888900060DD50888EF
:10056C0000060AD50948805C88803AB1013A5A6085
:10057C0070474022064BC3F88420704740F6FF7248
:10058C00F5E700BF14000020004400407404002074
:10059C0000E100E0A0B130B40B4D00E011460A467A
:1005AC00A5FB0043DB0803EB8304A0EB44003030D5
:1005BC0002F801091846002BF0D130BC08467047F0
:1005CC00302308460B707047CDCCCCCC70B110B436
:1005DC00084C00E019460B4600F00F02A25C000923
:1005EC0003F80129F6D1084610BC704730230846A1
:1005FC000B707047A40C000820B93023094800F890
:10060C00073F704710B40346074C084800E01046FB
:10061C00024603F00F01615C1B0902F80119F6D1C7
:10062C0010BC704768040020A40C00086F04002064
:10063C001C4A4FF6FF739069114640F02000906100
:10064C00106840F48030106002E000BF013B02D023
:10065C000A689003F9D5134A4FF6FF735068114698
:10066C0040F4E0105060506840F4803050601068E6
:10067C0040F08070106002E000BF013B02D00A68BD
:10068C009201F9D5074B08495A6842F480625A60C6
:10069C000A6842F001020A605A6842F002025A608B
:1006AC00704700BF00100240002002404FF0804114
:1006BC000B8A054A23F001031B041B0C0B821368E5
:1006CC0001331360704700BF74140020034A136891
:1006DC00002BFCD000231360704700BF7414002063
:1006EC00F0B401254FF0804349F63F474FF4C876EC
:1006FC004FF0805407490848CA692A43CA611F85CC
:10070C009E859D811A8892B22A431A800460F0BC9F
:10071C00704700BF0010024000E100E03AB101EB6D
:10072C00420250F8043B21F8023B8A42F9D170474F
:10073C00F0B44FF4C0572D4A2D4B9169002441F071
:10074C00040191615168402521F480015160D16907
:10075C004FF4084641F40001D1615A684FF48010FF
:10076C0042F440525A60596843F2300221F440413D
:10077C005960596841F440315960596821F440215D
:10078C0059605F61596841F400415960596841F4FE
:10079C00002159601F61A3F52C43B3F8401021F0E0
:1007AC0002010904090CA3F84010B3F8401021F021
:1007BC0001010904090CA3F840100E49A3F84440A8
:1007CC000D810D808E81A3F850401C880A4922406F
:1007DC0082F4324282F0A0021A80B3F84020F0BCBE
:1007EC0042F40442A3F84020086070470010024015
:1007FC00000801400060004000E100E008B504483A
:10080C00FFF780FE4FF48012024BC3F8802008BD26
:10081C00680D000800E100E0034AB2F84C3043F0E8
:10082C008003A2F84C307047005C0040044AB2F8D8
:10083C004C3023F080031B041B0CA2F84C30704787
:10084C00005C0040044AB2F84C3003F080031843BB
:10085C00A2F84C00704700BF005C0040002949D052
:10086C002DE9F0414FF4084C402548F2800747F23F
:10087C00700601EB410100EB410111F8044C31F819
:10088C00063CA20011F803EC02F18042234302F56E
:10089C00B8423B43BEF1000F0ED004F1806E4035E0
:1008AC000EF5C06E4FEA0E1E1FFA85F8AEF80880E2
:1008BC0043F44053AEF80CC011F802EC0639BEF10B
:1008CC00000F0BD004F1806404F5C06440352401A2
:1008DC001FFA85FE43F40053A4F800E0B2F800E0E0
:1008EC0003EA060484EA0E04234388421380C4D12D
:1008FC00BDE8F081704700BF70B4840004F18044FF
:10090C0004F5B844268806F44055B5F5005F02D0CE
:10091C0070BC00207047034640F2FF309042A8BFE5
:10092C00104603F1806303F5C0631B011D89421C53
:10093C006D0002EBD27205F18043521003F5C043F7
:10094C000DD005EB820505F1804505F5C045023952
:10095C001E680433AB4221F8026FF9D1268840F6A9
:10096C000F73334043F4104343F08003238070BC77
:10097C00704700BFF8B5860006F1804606F5B8460C
:10098C003388044603F03003202B0D46174629D13B
:10099C0004F1806000F5C06000010488791C6400DB
:1009AC0001EBD17104F18043491003F5C0430CD025
:1009BC0004EB810404F1804404F5C04435F8021BB7
:1009CC00043343F8041C9C42F8D140F60F73BAB2BE
:1009DC00828032883846134043F4004343F090033E
:1009EC003380F8BD0848FFF78DFD2046FFF704FE65
:1009FC00FFF788FD0548FFF785FD338803F03003CA
:100A0C00202BFDD1C4E700BF880D0008180D00088D
:100A1C00002140F60F7300F1806202F5C062800085
:100A2C00120100F1804000F5B8409180028813401B
:100A3C0043F4004343F0900303807047800000F1BF
:100A4C00804000F5B840038823F4E14323F07003A1
:100A5C000380704738B50E4D0E48B5F84440FFF78B
:100A6C0051FDA4B2200210F4706002D12B881A053B
:100A7C0009D4E3064CBF40F0030040F00400BDE88D
:100A8C003840FFF7A1BB0220BDE83840FFF79CBB04
:100A9C00005C0040A00D0008800000F1804000F5D3
:100AAC00B8400088704700BF014BB3F84400704752
:100ABC00005C0040014BB3F84C007047005C0040F8
:100ACC0008B5FFF7B5FDFFF797FCFFF7BDFCFFF787
:100ADC0007FEFFF72DFEFFF7F9FDFFF7A5FCFFF76B
:100AEC00F5FDFFF7A9FCF6E7002103E00B4B5B5883
:100AFC00435004310A480B4B42189A42F6D30A4A27
:100B0C0002E0002342F8043B084B9A42F9D3FFF76A
:100B1C00C5FB00F00FF8FFF7D3FF7047D80D0008A6
:100B2C00000000204C0400204C0400209C140020E9
:100B3C00FEE7000070B50D4E0D4D761BB61006D0BD
:100B4C000024013455F8043B9847A642F9D1094ECC
:100B5C00094D00F029F9761BB61006D0002401349B
:100B6C0055F8043B9847A642F9D170BDCC0D00084E
:100B7C00CC0D0008D40D0008CC0D0008024B13B1AD
:100B8C00024800F005B8704700000000A90B0008EF
:100B9C00002301461A46184600F01EB838B50A4C18
:100BAC000A4D641BA4100AD004F18043013B05EBF1
:100BBC008305013C55F804399847002CF9D1BDE860
:100BCC00384000F0F7B800BFD80D0008D40D00086D
:100BDC00704700BF704700BF2DE9F8432B4D064608
:100BEC00286898460F469146FFF7F2FF284B1C6881
:100BFC00D4F84831002B3DD05A681F2A0DDC02F185
:100C0C00010C16BB0232C3F804C0286843F82270EA
:100C1C00FFF7E0FF0020BDE8F8831E4B7BB34FF4D9
:100C2C00C870AFF30080034648B30020D4F84811D5
:100C3C004FF0010CC3E900100246C4F84831C3F868
:100C4C008801C3F88C01002EDCD0012103EB820457
:100C5C00C4F88890D3F8880191400843022EC3F859
:100C6C008801C4F80881CDD1D3F88C010143C3F8B5
:100C7C008C11C7E704F5A673C4F84831BCE72868A3
:100C8C00FFF7A8FF4FF0FF30C5E700BF4804002076
:100C9C00B00D0008000000003031323334353637E7
:100CAC003839414243444546626D526571756573EE
:100CBC0074547970653A200062526571756573746D
:100CCC003A2000007756616C75653A2000000000F0
:100CDC0077496E6465783A2000000000774C656EA9
:100CEC006774683A20000000476F74205265736582
:100CFC007420436F6D6D616E642E0A004550305246
:100D0C002061742072657365743A20000A0000003B
:100D1C00476F7420536574757020436F6D6D616EF1
:100D2C00642E0A0053656E742E2E2E0A00000000ED
:100D3C004F7468657220555342206576656E743A1F
:100D4C0020000000446562756767696E67207669EC
:100D5C0061205553415254322E0A00005368757469
:100D6C0074696E6720446F776E205553422053652B
:100D7C007276696365732E0A00000000576169740E
:100D8C00696E6720746F2073656E64206F6E2045EA
:100D9C00502000004F746865722073747566662E5F
:100DAC000000000020000020F8B500BFF8BC08BC13
:100DBC009E467047F8B500BFF8BC08BC9E4670470D
:080DCC00890B00083101000849
:040DD4000D01000805
:100DD80000000000000000000102030406070809E3
:100DE80000A24A04FF0F0000FF0F000000000000EF
:100DF800000000000C03002074030020DC03002026
:100E080000000000000000000000000000000000DA
:100E180000000000000000000000000000000000CA
:100E280000000000000000000000000000000000BA
:100E380000000000000000000000000000000000AA
:100E4800000000000000000000000000000000009A
:100E5800000000000000000000000000000000008A
:100E6800000000000000000000000000000000007A
:100E7800000000000000000000000000000000006A
:100E8800000000000000000000000000000000005A
:100E98000000000000000000010000000000000049
:100EA8000E33CDAB34126DE6ECDE05000B0000000E
:100EB800000000000000000000000000000000002A
:100EC800000000000000000000000000000000001A
:100ED800000000000000000000000000000000000A
:100EE80000000000000000000000000000000000FA
:0C1218000000000000000000781400201E
:0400000508000AF5F0
:00000001FF
