:020000040800F2
:10000000005000200D0B0008550B0008550B000890
:10001000550B0008550B0008550B000800000000A8
:10002000000000000000000000000000550B000868
:10003000550B000800000000550B0008550B000888
:10004000550B0008550B0008550B0008550B000810
:10005000550B0008550B0008550B0008550B000800
:10006000550B0008550B0008550B0008550B0008F0
:10007000550B0008550B0008550B0008550B0008E0
:10008000550B0008550B0008550B0008550B0008D0
:10009000710A0008550B0008550B0008550B0008A5
:1000A000550B0008550B0008550B0008550B0008B0
:1000B000DD060008550B0008550B0008550B00081D
:1000C000550B0008550B0008550B0008550B000890
:1000D000550B0008550B000875050008550B000866
:1000E000550B0008550B0008550B000800000000D8
:1000F0000000000000000000000000000000000000
:0C01000000000000000000005FF808F1A3
:10010C0010B5054C237833B9044B13B10448AFF345
:10011C0000800123237010BD4C040020000000005F
:10012C000C0100080C4B43B10C4810B50C49AFF353
:10013C0000800C48036823B910BD0A48036833B922
:10014C007047094B002BF7D0BDE810401847064B01
:10015C00002BF5D0184700BF000000000C01000870
:10016C00500400204C0400200000000010B50022B8
:10017C000A23044684B01C488DF80F208DF80E30ED
:10018C0000F0CEF90DF10D01207800F02FFA00F0FF
:10019C00C7F9164800F0C4F90DF10D01607800F0B4
:1001AC0025FA00F0BDF9124800F0BAF90DF10D0175
:1001BC00608800F01BFA00F0B3F90E4800F0B0F9BB
:1001CC000DF10D01A08800F011FA00F0A9F90A4810
:1001DC0000F0A6F90DF10D01E08800F007FA00F02F
:1001EC009FF904B010BD00BFD80C0008E80C000843
:1001FC00F40C0008000D00080C0D000810B50128C7
:10020C0082B01ED0022804460CD0244800F088F995
:10021C00204600F003FA00F083F9214800F080F941
:10022C0002B010BD1F4800F07BF96946082200207F
:10023C0000F07EFB6846FFF799FF00F0F9FA02B078
:10024C0010BD194800F06CF90021084600F022FBA3
:10025C00002000F013FB00F0F9FA144800F060F9EC
:10026C00002000F021FC00F0D9F900F059F91048F9
:10027C0000F056F900F028FC00F0D0F900F050F92D
:10028C000B4800F04DF900F017FC00F0C7F900F036
:10029C0047F9034800F044F902B010BD540D0008B2
:1002AC003C0D0008400D0008180D00082C0D00082E
:1002BC00140D000830B400244FF41F053A4B3B4991
:1002CC00186882B040F00100186058681A46014066
:1002DC005960196821F0847121F480311960196812
:1002EC0021F480211960596821F4FE0159609D6048
:1002FC0000940194196841F48031196003E0009B6B
:10030C00B3F5A06F09D0136803F400330193009B7D
:10031C0001330093019B002BF1D0234B1B6813F48A
:10032C00003318BF01230193019B012B06D04FF022
:10033C0000621F4B9A6002B030BC70471D491A4BCB
:10034C0008681A4640F010000860086820F00300A6
:10035C000860086840F002000860596859605968E4
:10036C005960596841F480615960596821F47C11D5
:10037C005960596841F4E8115960196841F080716D
:10038C00196013689B01FCD55368074923F00303DC
:10039C005360536843F0020353604B6803F00C0343
:1003AC00082BFAD1C3E700BF001002400000FFF891
:1003BC0000ED00E000200240114A536803F00C03EA
:1003CC00082B0ED153685168C3F38343C90303F15F
:1003DC00020310D5526892030DD40A4A02FB03F3B0
:1003EC0000E0084B064A08495268C2F303128A5CC3
:1003FC00D3400B617047054A02FB03F3F2E700BFE1
:10040C000010024000127A000000002000093D009C
:10041C0009490A4B8A6942F010028A615A6822F42F
:10042C0040125A605A6842F440125A605A6822F4D8
:10043C0040025A60704700BF00100240001001409B
:10044C004FF40052014B1A61704700BF001001407D
:10045C004FF40052014B5A61704700BF001001402D
:10046C00234AF0B440F271279169224B41F0040108
:10047C009161D169204C41F40031D1611A681F4E51
:10048C0042F440721A601A68442022F440621A60E6
:10049C0019681B4A41F4006119601D68194925F45B
:1004AC0040551D601D6825F440451D605D6845F490
:1004BC0080455D602781A3899BB243F4025343F0CE
:1004CC000C03A381336803E012F8010F013B40B128
:1004DC00C854002BF8D112F8010F40F6FF73002816
:1004EC00F6D14021084A33605160F0BC704700BF20
:1004FC00001002400008014000440040140000209D
:10050C00680D00086804002000E100E0034B1A8825
:10051C00120644BF80B29880704700BF0044004070
:10052C000278BAB110B40D4C0D49236803E010F8F1
:10053C00012F013B42B1CA54002BF8D110F8012F06
:10054C0040F6FF73002AF6D140222360054B10BC05
:10055C005A6070474022034B5A60704714000020C9
:10056C006804002000E100E00D4B93E80600914286
:10057C000DD00C49888900060DD5088800060AD5CF
:10058C000948805C88803AB1013A5A607047402231
:10059C00064BC3F88420704740F6FF725A607047D0
:1005AC0014000020004400406804002000E100E03A
:1005BC00A8B130B403460C4D084600E0084601468D
:1005CC00A5FB0342D20802EB8204A3EB44033033B5
:1005DC0001F801391346002AF0D130BC70473023A2
:1005EC0008460B70704700BFCDCCCCCC78B110B4A2
:1005FC000346094C084600E01046024603F00F0182
:10060C00615C1B0902F80119F6D110BC704730234C
:10061C0008460B70704700BFC80C000820B9302387
:10062C00094800F8F13D704710B40346074C0848E0
:10063C0000E01046024603F00F01615C1B0902F852
:10064C000119F6D110BC704760150020C80C0008C9
:10065C006F1400201C4A4FF6FF739069114640F04E
:10066C0020009061106840F48030106002E000BF00
:10067C00013B02D00A689003F9D5134A4FF6FF7379
:10068C005068114640F4E0105060506840F48030DF
:10069C005060106840F08070106002E000BF013BB9
:1006AC0002D00A689201F9D5074B08495A6842F4FE
:1006BC0080625A600A6842F001020A605A6842F08D
:1006CC0002025A60704700BF001002400020024036
:1006DC004FF080410B8A054A23F001031B041B0CCD
:1006EC000B82136801331360704700BF7414002031
:1006FC00034A1368002BFCD000231360704700BF23
:10070C0074140020F0B401254FF0804349F63F47A4
:10071C004FF4C8764FF0805407490848CA692A43F9
:10072C00CA611F859E859D811A8892B22A431A80C0
:10073C000460F0BC704700BF0010024000E100E014
:10074C003AB101EB420250F8043B21F8023B9142D2
:10075C00F9D17047F0B54FF4C05E304A304B916917
:10076C00002541F0040191615168402621F480017B
:10077C005160D1694FF4084741F40001D1615968C7
:10078C0043F2300241F44051596059684FF48010E3
:10079C0021F440415960596841F44031596059681D
:1007AC0021F440215960C3F814E0596841F4004128
:1007BC0059605C681B4944F400245C60C3F810E089
:1007CC00B1F84030184C23F002031B041B0CA1F8A9
:1007DC004030B1F8403023F001031B041B0CA1F88E
:1007EC004030A1F8445026812680A781A1F85050B2
:1007FC000B880E4C134083F4405383F0200343F4D6
:10080C00024343F080030B80B1F840309BB243F4B9
:10081C000443A1F840302060F0BD00BF001002403E
:10082C0000080140005C00400060004000E100E076
:10083C0008B50448FFF774FE4FF48012024BC3F85E
:10084C00802008BD800D000800E100E0044AB2F8E9
:10085C004C309BB243F08003A2F84C30704700BF81
:10086C00005C0040044AB2F84C3023F080031B04B7
:10087C001B0CA2F84C307047005C0040044AB2F8E4
:10088C004C3003F080031843A2F84C00704700BFB3
:10089C00005C004000294AD02DE9F041402548F287
:1008AC0080074FF4084E47F2700601EB410100EB54
:1008BC00410111F8042C31F8063C9400134311F853
:1008CC0003CC04F180443B4304F5B8449BB2BCF127
:1008DC00000F0ED002F1806C40350CF5C06C4FEA65
:1008EC000C1C1FFA85F8ACF8088043F44053ACF8A4
:1008FC000CE011F802CC0639BCF1000F0BD002F160
:10090C00806202F5C062403512011FFA85FC43F487
:10091C000053A2F800C0B4F800C003EA060282EA51
:10092C000C02134388422380C3D1BDE8F081704789
:10093C0070B4860006F1804606F5B846348804F497
:10094C004055B5F5005F02D070BC002070470346DF
:10095C0040F2FF309042A8BF104603F1806303F5CC
:10096C00C0631B011B89451C9BB25B0005EBD57555
:10097C0003F180436D1003F5C04308D001EB45052E
:10098C0053F8044B21F8024B8D42F9D1348840F6D0
:10099C000F731C4044F4104444F08004348070BC49
:1009AC00704700BFF8B5850005F1804505F5B845E1
:1009BC002B88074603F03003202B0C4616460FD02D
:1009CC001A48FFF7ADFD3846FFF728FEFFF7A8FDE4
:1009DC001748FFF7A5FD2B8803F03003202BFDD122
:1009EC0007F1806000F5C06002011388711C01EBF7
:1009FC00D1719BB249104FEA43070AD023460D48E8
:100A0C0004EB4101384433F8024B994240F8044F4F
:100A1C00F9D140F60F73B1B291802A883046134059
:100A2C0043F4004343F090032B80F8BDA00D000865
:100A3C003C0D0008FC5F0040002140F60F7300F1F4
:100A4C00806202F5C0628000120100F1804000F566
:100A5C00B84091800288134043F4004343F0900364
:100A6C00038070470F4AB2F844309BB2590511D439
:100A7C00180210F4706007D0DB064CBF40F0030086
:100A8C0040F00400FFF7BABB12881205F4D502201F
:100A9C00FFF7B4BB4FF6FF330120A2F84430FFF749
:100AAC00ADBB00BF005C0040800000F1804000F551
:100ABC00B8400088704700BF024BB3F8440080B2C6
:100ACC00704700BF005C0040024BB3F84C0080B292
:100ADC00704700BF005C004008B5FFF7BBFDFFF797
:100AEC0097FCFFF7BDFCFFF70DFEFFF733FEFFF79A
:100AFC00FFFDFFF7A5FCFFF7FBFDFFF7A9FCF6E7F1
:100B0C00002103E00B4B5B58435004310A480B4B5C
:100B1C0042189A42F6D30A4A02E0002342F8043BF8
:100B2C00084B9A42F9D3FFF7C5FB00F00FF8FFF71B
:100B3C00D3FF7047E00D0008000000204C0400209B
:100B4C004C0400209C140020FEE7000070B50F4EF2
:100B5C000F4D761BB61018BF002405D0013455F884
:100B6C00043B9847A642F9D10A4E0B4D00F020F9F0
:100B7C00761BB61018BF002406D0013455F8043B80
:100B8C009847A642F9D170BD70BD00BFD40D0008C6
:100B9C00D40D0008DC0D0008D40D0008024B13B175
:100BAC00024800F005B8704700000000C90B0008AF
:100BBC00002301461A46184600F01EB838B50A4CF8
:100BCC000A4D641BA4100AD004F18043013B05EBD1
:100BDC008305013C55F804399847002CF9D1BDE840
:100BEC00384000F0EBB800BFE00D0008DC0D000849
:100BFC00704700BF704700BF2DE9F8432C4D0646E7
:100C0C00286898460F469146FFF7F2FF294B1C685F
:100C1C00D4F84831002B3ED05A681F2A1CDC02F154
:100C2C00010E76B1012103EB8204C4F88890D3F84D
:100C3C00880191400843022EC3F88801C4F808814A
:100C4C0023D00232C3F804E0286843F82270FFF77F
:100C5C00D1FF0020BDE8F883174B0BB34FF4C870DD
:100C6C00AFF300800346D8B10020D4F848114FF000
:100C7C00010E586019600246C4F84831C3F8880167
:100C8C00C3F88C01002EDCD0CCE7D3F88C010143E7
:100C9C00C3F88C11D5E704F5A673C4F84831BBE74B
:100CAC002868FFF7A7FF4FF0FF30BDE8F88300BFBF
:100CBC0048040020B80D0008000000003031323329
:100CCC00343536373839414243444546626D5265B6
:100CDC007175657374547970653A20006252657150
:100CEC00756573743A2000007756616C75653A200F
:100CFC000000000077496E6465783A20000000001F
:100D0C00774C656E6774683A20000000476F74205A
:100D1C00526573657420436F6D6D616E642E0A00AD
:100D2C00455030522061742072657365743A20000E
:100D3C000A000000476F7420536574757020436F70
:100D4C006D6D616E642E0A004F7468657220555388
:100D5C0042206576656E743A200000004465627529
:100D6C006767696E6720766961205553415254322A
:100D7C002E0A00005368757474696E6720446F778F
:100D8C006E205553422053657276696365732E0A43
:100D9C000000000057616974696E6720746F2073DE
:100DAC00656E64206F6E20455020000020000020EE
:100DBC00F8B500BFF8BC08BC9E467047F8B500BF3C
:080DCC00F8BC08BC9E4670470C
:080DD400A90B00083101000821
:040DDC000D010008FD
:100DE00000000000000000000102030406070809DB
:100DF00000A24A04FF0F0000FF0F000000000000E7
:100E0000000000000C03002074030020DC0300201D
:100E100000000000000000000000000000000000D2
:100E200000000000000000000000000000000000C2
:100E300000000000000000000000000000000000B2
:100E400000000000000000000000000000000000A2
:100E50000000000000000000000000000000000092
:100E60000000000000000000000000000000000082
:100E70000000000000000000000000000000000072
:100E80000000000000000000000000000000000062
:100E90000000000000000000000000000000000052
:100EA0000000000000000000010000000000000041
:100EB0000E33CDAB34126DE6ECDE05000B00000006
:100EC0000000000000000000000000000000000022
:100ED0000000000000000000000000000000000012
:100EE0000000000000000000000000000000000002
:100EF00000000000000000000000000000000000F2
:0C12200000000000000000007814002016
:0400000508000B0DD7
:00000001FF
