:020000040800F2
:1000000000500020690A0008B10A0008B10A00087F
:10001000B10A0008B10A0008B10A00080000000097
:10002000000000000000000000000000B10A00080D
:10003000B10A000800000000B10A0008B10A000877
:10004000B10A0008B10A0008B10A0008B10A0008A4
:10005000B10A0008B10A0008B10A0008B10A000894
:10006000B10A0008B10A0008B10A0008B10A000884
:10007000B10A0008B10A0008B10A0008B10A000874
:10008000B10A0008B10A0008B10A0008B10A000864
:1000900061090008B10A0008B10A0008B10A0008A5
:1000A000B10A0008B10A0008B10A0008B10A000844
:1000B000C5050008B10A0008B10A0008B10A000825
:1000C000B10A0008B10A0008B10A0008B10A000824
:1000D000B10A0008B10A00085D040008B10A00086E
:1000E000B10A0008B10A0008B10A000800000000C7
:1000F0000000000000000000000000000000000000
:0C01000000000000000000005FF808F1A3
:10010C0010B5054C237833B9044B13B10448AFF345
:10011C0000800123237010BD4C040020000000005F
:10012C000C0100080C4B43B10C4810B50C49AFF353
:10013C0000800C48036823B910BD0A48036833B922
:10014C007047094B002BF7D0BDE810401847064B01
:10015C00002BF5D0184700BF000000000C01000870
:10016C00500400204C04002000000000012808B5B9
:10017C0009D0022806D1074800F046F9BDE808402E
:10018C0000F0CABA08BD044800F03EF9BDE80840CA
:10019C0000F0C2BA480C0008340C000830B400243B
:1001AC004FF41F053A4B3B49186882B040F00100F0
:1001BC00186058681A4601405960196821F084711A
:1001CC0021F480311960196821F480211960596873
:1001DC0021F4FE0159609D6000940194196841F46A
:1001EC008031196003E0009BB3F5A06F09D0136850
:1001FC0003F400330193009B01330093019B002B0C
:10020C00F1D0234B1B6813F4003318BF0123019367
:10021C00019B012B06D04FF000621F4B9A6002B07D
:10022C0030BC70471D491A4B08681A4640F0100044
:10023C000860086820F003000860086840F00200BD
:10024C0008605968596059685960596841F480616F
:10025C005960596821F47C115960596841F4E811CE
:10026C005960196841F08071196013689B01FCD5C5
:10027C005368074923F003035360536843F00203A8
:10028C0053604B6803F00C03082BFAD1C3E700BF93
:10029C00001002400000FFF800ED00E000200240DA
:1002AC00114A536803F00C03082B0ED153685168A4
:1002BC00C3F38343C90303F1020310D552689203BD
:1002CC000DD40A4A02FB03F300E0084B064A084926
:1002DC005268C2F303128A5CD3400B617047054A23
:1002EC0002FB03F3F2E700BF0010024000127A0099
:1002FC000000002000093D0009490A4B8A6942F0C0
:10030C0010028A615A6822F440125A605A6842F408
:10031C0040125A605A6822F440025A60704700BF7B
:10032C0000100240001001404FF40052014B1A61C2
:10033C00704700BF001001404FF40052014B5A614E
:10034C00704700BF00100140234AF0B440F27127FF
:10035C009169224B41F004019161D169204C41F427
:10036C000031D1611A681F4E42F440721A601A684B
:10037C00442022F440621A6019681B4A41F400615F
:10038C0019601D68194925F440551D601D6825F438
:10039C0040451D605D6845F480455D602781A389FB
:1003AC009BB243F4025343F00C03A381336803E084
:1003BC0012F8010F013B40B1C854002BF8D112F8D0
:1003CC00010F40F6FF730028F6D14021084A336034
:1003DC005160F0BC704700BF0010024000080140A3
:1003EC0000440040140000205C0C0008680400204D
:1003FC0000E100E0034B1A88120644BF80B29880DB
:10040C00704700BF004400400278BAB110B40D4CE4
:10041C000D49236803E010F8012F013B42B1CA5487
:10042C00002BF8D110F8012F40F6FF73002AF6D1FB
:10043C0040222360054B10BC5A6070474022034B8E
:10044C005A607047140000206804002000E100E0AE
:10045C000D4B93E8060091420DD00C49888900069B
:10046C000DD5088800060AD50948805C88803AB109
:10047C00013A5A6070474022064BC3F884207047FB
:10048C0040F6FF725A607047140000200044004090
:10049C006804002000E100E0A8B130B403460C4D24
:1004AC00084600E008460146A5FB0342D20802EBD1
:1004BC008204A3EB4403303301F801391346002ABC
:1004CC00F0D130BC7047302308460B70704700BF2A
:1004DC00CDCCCCCC78B110B40346094C084600E026
:1004EC001046024603F00F01615C1B0902F801196A
:1004FC00F6D110BC7047302308460B70704700BF14
:10050C00240C000820B93023094800F8F13D70474D
:10051C0010B40346074C084800E01046024603F0AE
:10052C000F01615C1B0902F80119F6D110BC704770
:10053C0060150020240C00086F1400201C4A4FF694
:10054C00FF739069114640F020009061106840F4F0
:10055C008030106002E000BF013B02D00A689003BB
:10056C00F9D5134A4FF6FF735068114640F4E0106A
:10057C005060506840F480305060106840F08070DB
:10058C00106002E000BF013B02D00A689201F9D56D
:10059C00074B08495A6842F480625A600A6842F074
:1005AC0001020A605A6842F002025A60704700BFAA
:1005BC0000100240002002404FF080410B8A054A97
:1005CC0023F001031B041B0C0B8213680133136013
:1005DC00704700BF74140020034A1368002BFCD032
:1005EC0000231360704700BF74140020F0B4012581
:1005FC004FF0804349F63F474FF4C8764FF0805494
:10060C0007490848CA692A43CA611F859E859D818E
:10061C001A8892B22A431A800460F0BC704700BF5B
:10062C000010024000E100E03AB101EB420250F848
:10063C00043B21F8023B9142F9D17047F0B54FF4DD
:10064C00C05E304A304B9169002541F00401916144
:10065C005168402621F480015160D1694FF408475C
:10066C0041F40001D161596843F2300241F4405128
:10067C00596059684FF4801021F440415960596811
:10068C0041F440315960596821F440215960C3F854
:10069C0014E0596841F4004159605C681B4944F40A
:1006AC0000245C60C3F810E0B1F84030184C23F023
:1006BC0002031B041B0CA1F84030B1F8403023F0AE
:1006CC0001031B041B0CA1F84030A1F844502681F7
:1006DC002680A781A1F850500B880E4C134083F450
:1006EC00405383F0200343F4024343F080030B8018
:1006FC00B1F840309BB243F40443A1F84030206081
:10070C00F0BD00BF0010024000080140005C00403A
:10071C000060004000E100E008B50448FFF774FEFB
:10072C004FF48012024BC3F8802008BD740C0008F3
:10073C0000E100E0044AB2F84C309BB243F0800375
:10074C00A2F84C30704700BF005C0040054AB2F87C
:10075C004C30B2F84C1003F0800389B24B40A2F835
:10076C004C307047005C0040044AB2F84C3003F047
:10077C0080031843A2F84C00704700BF005C004097
:10078C0001294BD02DE9F041402548F280074FF468
:10079C00084E47F2700601EB410100EB41010630B7
:1007AC0011F8042C31F8063C9400134311F803CCD7
:1007BC0004F180443B4304F5B8449BB2BCF1000FF8
:1007CC000ED002F1806C40350CF5C06C4FEA0C1C5D
:1007DC001FFA85F8ACF8088043F44053ACF80CE0F1
:1007EC0011F802CC0639BCF1000F0BD002F180627B
:1007FC0002F5C062403512011FFA85FC43F4005328
:10080C00A2F800C0B4F800C003EA060282EA0C02A7
:10081C00134388422380C3D1BDE8F081704700BFE9
:10082C0070B4860006F1804606F5B846348804F4A8
:10083C004055B5F5005F02D070BC002070470346F0
:10084C0040F2FF309042A8BF104603F1806303F5DD
:10085C00C0631B011B89451C9BB25B0005EBD57566
:10086C0003F180436D1003F5C04308D001EB45053F
:10087C0053F8044B21F8024B8D42F9D1348840F6E1
:10088C000F731C4044F4104444F08004348070BC5A
:10089C00704700BFF8B5850005F1804505F5B845F2
:1008AC002B88074603F03003202B0C4616460FD03E
:1008BC001A48FFF7A9FD3846FFF724FEFFF7A4FD01
:1008CC001748FFF7A1FD2B8803F03003202BFDD137
:1008DC0007F1806000F5C06002011388711C01EB08
:1008EC00D1719BB249104FEA43070AD023460D48F9
:1008FC0004EB4101384433F8024B994240F8044F61
:10090C00F9D140F60F73B1B291802A88304613406A
:10091C0043F4004343F090032B80F8BD940C000883
:10092C00AC0C0008FC5F0040002140F60F7300F196
:10093C00806202F5C0628000120100F1804000F577
:10094C00B84091800288134043F4004343F0900375
:10095C000380704710B5124CB4F844309BB2590563
:10096C0016D4180210F470600DD0DB064CBF40F0AA
:10097C00030040F00400FFF7F9FB4FF6FF32084B81
:10098C00A3F8442010BD22881205EED50220F2E710
:10099C000120FFF7EBFB4FF6FF33A4F8443010BDFA
:1009AC00005C004010B500220A23044684B01C48A9
:1009BC008DF80F208DF80E30FFF726FD0DF10D018F
:1009CC002078FFF787FDFFF71FFD1648FFF71CFD8A
:1009DC000DF10D016078FFF77DFDFFF715FD124855
:1009EC00FFF712FD0DF10D01A088FFF773FDFFF766
:1009FC000BFD0E48FFF708FD0DF10D012089FFF7E7
:100A0C0069FDFFF701FD0A48FFF7FEFC0DF10D0132
:100A1C00A089FFF75FFDFFF7F7FC04B010BD00BF26
:100A2C00B00C0008C00C0008CC0C0008D80C000856
:100A3C00E40C000808B5FFF781FDFFF75DFCFFF73C
:100A4C0083FCFFF7D3FDFFF7F9FDFFF7C5FDFFF7BB
:100A5C006BFCFFF7C1FDFFF76FFCF6E7002103E02D
:100A6C000B4B5B58435004310A480B4B42189A42CB
:100A7C00F6D30A4A02E0002342F8043B084B9A42A0
:100A8C00F9D3FFF78BFB00F00FF8FFF7D3FF70479C
:100A9C00180D0008000000204C0400204C0400201D
:100AAC009C140020FEE7000070B50F4E0F4D761B16
:100ABC00B61018BF002405D0013455F8043B9847F4
:100ACC00A642F9D10A4E0B4D00F00EF9761BB6106A
:100ADC0018BF002406D0013455F8043B9847A642B1
:100AEC00F9D170BD70BD00BF0C0D00080C0D0008D5
:100AFC00140D00080C0D0008024B13B1024800F055
:100B0C0005B8704700000000250B000800230146C3
:100B1C001A46184600F01EB838B50A4C0A4D641B2C
:100B2C00A4100AD004F18043013B05EB8305013C82
:100B3C0055F804399847002CF9D1BDE8384000F03D
:100B4C00D9B800BF180D0008140D0008704700BF7D
:100B5C00704700BF2DE9F8432C4D0646286898468F
:100B6C000F469146FFF7F2FF294B1C68D4F8483129
:100B7C00002B3ED05A681F2A1CDC02F1010E76B104
:100B8C00012103EB8204C4F88890D3F888019140CA
:100B9C000843022EC3F88801C4F8088123D002321E
:100BAC00C3F804E0286843F82270FFF7D1FF002057
:100BBC00BDE8F883174B0BB34FF4C870AFF300804C
:100BCC000346D8B10020D4F848114FF0010E5860FC
:100BDC0019600246C4F84831C3F88801C3F88C0187
:100BEC00002EDCD0CCE7D3F88C010143C3F88C1178
:100BFC00D5E704F5A673C4F84831BBE72868FFF7BE
:100C0C00A7FF4FF0FF30BDE8F88300BF4804002079
:100C1C00F00C000800000000303132333435363728
:100C2C003839414243444546476F742052657365D9
:100C3C007420436F6D6D616E642E0A00476F7420D3
:100C4C00536574757020436F6D6D616E642E0A0070
:100C5C00446562756767696E6720766961205553D4
:100C6C00415254322E0A00005368757474696E67D1
:100C7C0020446F776E20555342205365727669631A
:100C8C0065732E0A0000000057616974696E672055
:100C9C00746F2073656E64206F6E204550200000C9
:100CAC000A000000626D5265717565737454797039
:100CBC00653A200062526571756573743A200000C4
:100CCC007756616C75653A200000000077496E64B8
:100CDC0065783A2000000000774C656E6774683ABE
:100CEC002000000020000020F8B500BFF8BC08BCB4
:100CFC009E467047F8B500BFF8BC08BC9E467047CE
:080D0C00050B0008310100088D
:040D14000D010008C5
:100D180000000000000000000102030406070809A3
:100D280000A24A04FF0F0000FF0F000000000000AF
:100D3800000000000C03002074030020DC030020E6
:100D4800000000000000000000000000000000009B
:100D5800000000000000000000000000000000008B
:100D6800000000000000000000000000000000007B
:100D7800000000000000000000000000000000006B
:100D8800000000000000000000000000000000005B
:100D9800000000000000000000000000000000004B
:100DA800000000000000000000000000000000003B
:100DB800000000000000000000000000000000002B
:100DC800000000000000000000000000000000001B
:100DD800000000000000000001000000000000000A
:100DE8000E33CDAB34126DE6ECDE05000B000000CF
:100DF80000000000000000000000000000000000EB
:100E080000000000000000000000000000000000DA
:100E180000000000000000000000000000000000CA
:100E280000000000000000000000000000000000BA
:0C115800000000000000000078140020DF
:0400000508000A697C
:00000001FF
