:020000040800F2
:10000000005000206D0B0008B50B0008B50B000870
:10001000B50B0008B50B0008B50B00080000000088
:10002000000000000000000000000000B50B000808
:10003000B50B000800000000B50B0008B50B000868
:10004000B50B0008B50B0008B50B0008B50B000890
:10005000B50B0008B50B0008B50B0008B50B000880
:10006000B50B0008B50B0008B50B0008B50B000870
:10007000B50B0008B50B0008B50B0008B50B000860
:10008000B50B0008B50B0008B50B0008B50B000850
:10009000690A0008B50B0008B50B0008B50B00088D
:1000A000B50B0008B50B0008B50B0008B50B000830
:1000B000A9060008B50B0008B50B0008B50B000831
:1000C000B50B0008B50B0008B50B0008B50B000810
:1000D000B50B0008B50B000849050008B50B000872
:1000E000B50B0008B50B0008B50B000800000000B8
:1000F0000000000000000000000000000000000000
:0C01000000000000000000005FF808F1A3
:10010C0010B5054C237833B9044B13B10448AFF345
:10011C0000800123237010BD4C040020000000005F
:10012C000C0100080C4B43B10C4810B50C49AFF353
:10013C0000800C48036823B910BD0A48036833B922
:10014C007047094B002BF7D0BDE810401847064B01
:10015C00002BF5D0184700BF000000000C01000870
:10016C00500400204C0400200000000010B50022B8
:10017C000A23044684B01C488DF80F208DF80E30ED
:10018C0000F0B8F90DF10D01207800F017FA00F02D
:10019C00B1F9164800F0AEF90DF10D01607800F0E0
:1001AC000DFA00F0A7F9124800F0A4F90DF10D01B9
:1001BC00608800F003FA00F09DF90E4800F09AF9FF
:1001CC000DF10D01A08800F0F9F900F093F90A483F
:1001DC0000F090F90DF10D01E08800F0EFF900F05E
:1001EC0089F904B010BD00BF380D0008480D000897
:1001FC00540D0008600D00086C0D000810B50228A5
:10020C0082B029D0042804461ED001280ED01A48EA
:10021C0000F070F9204600F0E7F900F06BF9174890
:10022C0000F068F900F0F4FA02B010BD144800F0C8
:10023C0061F90021084600F01DFB002000F00EFBC8
:10024C0000F0F4FA02B010BD0E4800F053F9002093
:10025C0000F0F8FB02B010BD0B4800F04BF96946FA
:10026C000822002000F054FB6846FFF77FFF00F0E7
:10027C00CFFA02B010BD00BFAC0D0008C00D0008D5
:10028C00780D0008A00D00088C0D000830B4002477
:10029C004FF41F053A4B3B49186882B040F00100FF
:1002AC00186058681A4601405960196821F0847129
:1002BC0021F480311960196821F480211960596882
:1002CC0021F4FE0159609D6000940194196841F479
:1002DC008031196003E0009BB3F5A06F09D013685F
:1002EC0003F400330193009B01330093019B002B1B
:1002FC00F1D0234B1B6813F4003318BF0123019377
:10030C00019B012B06D04FF000621F4B9A6002B08C
:10031C0030BC70471D491A4B08681A4640F0100053
:10032C000860086820F003000860086840F00200CC
:10033C0008605968596059685960596841F480617E
:10034C005960596821F47C115960596841F4E811DD
:10035C005960196841F08071196013689B01FCD5D4
:10036C005368074923F003035360536843F00203B7
:10037C0053604B6803F00C03082BFAD1C3E700BFA2
:10038C00001002400000FFF800ED00E000200240E9
:10039C00114A536803F00C03082B0ED153685168B3
:1003AC00C3F38343C90303F1020310D552689203CC
:1003BC000DD40A4A02FB03F300E0084B064A084935
:1003CC005268C2F303128A5CD3400B617047054A32
:1003DC0002FB03F3F2E700BF0010024000127A00A8
:1003EC000000002000093D0009490A4B8A6942F0CF
:1003FC0010028A615A6822F440125A605A6842F418
:10040C0040125A605A6822F440025A60704700BF8A
:10041C0000100240001001404FF40052014B1A61D1
:10042C00704700BF001001404FF40052014B5A615D
:10043C00704700BF00100140224A30B440F27125D1
:10044C009169214B41F004019161D1691F4C41F438
:10045C000031D1611A681E4942F440721A601A6860
:10046C00442022F440621A601A6842F400621A6056
:10047C001A6822F440521A601A6822F440421A6038
:10048C005A6842F480425A600D818B89114A43F4B8
:10049C00025343F00C038B8123680F4903E012F8DD
:1004AC00010F013B40B1C854002BF8D112F8010FD9
:1004BC0040F6FF730028F6D14021084A23605160B2
:1004CC0030BC7047001002400008014014000020AE
:1004DC0000440040C40D00087404002000E100E05A
:1004EC00034B1A88120644BF80B29880704700BF35
:1004FC00004400400278BAB110B40D4C0D49236889
:10050C0003E010F8012F013B42B1CA54002BF8D183
:10051C0010F8012F40F6FF73002AF6D14022236019
:10052C00054B10BC5A6070474022034B5A60704711
:10053C00140000207404002000E100E00D4BD3E90E
:10054C00001291420DD00C49888900060DD50888FF
:10055C0000060AD50948805C88803AB1013A5A6095
:10056C0070474022064BC3F88420704740F6FF7258
:10057C00F5E700BF14000020004400407404002084
:10058C0000E100E0A0B130B40B4D00E011460A468A
:10059C00A5FB0043DB0803EB8304A0EB44003030E5
:1005AC0002F801091846002BF0D130BC0846704700
:1005BC00302308460B707047CDCCCCCC70B110B446
:1005CC00084C00E019460B4600F00F02A25C000933
:1005DC0003F80129F6D1084610BC704730230846B1
:1005EC000B707047280D000820B93023094800F81B
:1005FC00073F704710B40346074C084800E010460C
:10060C00024603F00F01615C1B0902F80119F6D1D7
:10061C0010BC704768040020280D00086F040020EF
:10062C001C4A4FF6FF739069114640F02000906110
:10063C00106840F48030106002E000BF013B02D033
:10064C000A689003F9D5134A4FF6FF7350681146A8
:10065C0040F4E0105060506840F4803050601068F6
:10066C0040F08070106002E000BF013B02D00A68CD
:10067C009201F9D5074B08495A6842F480625A60D6
:10068C000A6842F001020A605A6842F002025A609B
:10069C00704700BF00100240002002404FF0804124
:1006AC000B8A054A23F001031B041B0C0B821368F5
:1006BC0001331360704700BF74140020034A1368A1
:1006CC00002BFCD000231360704700BF7414002073
:1006DC00F0B401254FF0804349F63F474FF4C876FC
:1006EC004FF0805407490848CA692A43CA611F85DC
:1006FC009E859D811A8892B22A431A800460F0BCB0
:10070C00704700BF0010024000E100E038B50F4C0C
:10071C000F4D208880B2FFF767FFFFF7EBFE2846EE
:10072C00FFF7E8FEB4F8440080B2FFF75DFFFFF777
:10073C00E1FE2846FFF7DEFEB4F84C0080B2FFF76E
:10074C0053FFBDE83840FFF7D5BE00BF005C00404A
:10075C00DC0D00083AB101EB420250F8043B21F8E1
:10076C00023B9142F9D1704770B44FF4C056244902
:10077C00244B8A69002542F004028A614A684FF4CE
:10078C00801022F480024A60CC691F4A44F40004B1
:10079C00CC6159681D4C41F440515960596821F4A1
:1007AC0040415960596841F440315960596821F40D
:1007BC00402159605E61596841F4004159605968A3
:1007CC0041F4002159601E61B2F8403023F002035D
:1007DC001B041B0CA2F84030B2F8403023F001038C
:1007EC001B041B0CA2F84030A2F84450B2F8403065
:1007FC009BB243F40443A2F84030206070BC7047B5
:10080C000010024000080140005C004000E100E0E4
:10081C0008B50448FFF76EFE4FF48012024BC3F884
:10082C00802008BDE00D000800E100E0044AB2F8A9
:10083C004C309BB243F08003A2F84C30704700BFA1
:10084C00005C0040044AB2F84C3023F080031B04D7
:10085C001B0CA2F84C307047005C0040044AB2F804
:10086C004C3003F080031843A2F84C00704700BFD3
:10087C00005C004000294AD02DE9F041402548F2A7
:10088C0080074FF4084E47F2700601EB410100EB74
:10089C00410111F8042C31F8063C9400134311F873
:1008AC0003CC04F180443B4304F5B8449BB2BCF147
:1008BC00000F0ED002F1806C40350CF5C06C4FEA85
:1008CC000C1C1FFA85F8ACF8088043F44053ACF8C4
:1008DC000CE011F802CC0639BCF1000F0BD002F180
:1008EC00806202F5C062403512011FFA85FC43F4A8
:1008FC000053A2F800C0B4F800C003EA060282EA72
:10090C000C02134388422380C3D1BDE8F0817047A9
:10091C0070B4860006F1804606F5B846348804F4B7
:10092C004055B5F5005F02D070BC002070470346FF
:10093C0040F2FF309042A8BF104603F1806303F5EC
:10094C00C0631B011B89451C9BB25B0005EBD57575
:10095C0003F180436D1003F5C04308D001EB45054E
:10096C0053F8044B21F8024B8D42F9D1348840F6F0
:10097C000F731C4044F4104444F08004348070BC69
:10098C00704700BFF8B5850005F1804505F5B84501
:10099C002B88074603F03003202B0C4616460FD04D
:1009AC001A48FFF7A7FD3846FFF71EFEFFF7A2FD1A
:1009BC001748FFF79FFD2B8803F03003202BFDD148
:1009CC0007F1806000F5C06002011388711C01EB17
:1009DC00D1719BB249104FEA43070AD023460D4808
:1009EC0004EB4101384433F8024B994240F8044F70
:1009FC00F9D140F60F73B1B291802A88304613407A
:100A0C0043F4004343F090032B80F8BD000E000824
:100A1C00C00D0008FC5F0040002140F60F7300F190
:100A2C00806202F5C0628000120100F1804000F586
:100A3C00B84091800288134043F4004343F0900384
:100A4C0003807047800000F1804000F5B8400388B7
:100A5C0023F4E14323F070030380704770B52448FE
:100A6C00244DFFF747FDFFF751FE2348FFF742FDEA
:100A7C00B5F84440A4B261051DD42048FFF73AFDF7
:100A8C00200210F4706011D0E3064CBF40F003005C
:100A9C0040F00400FFF7B2FB1948FFF72BFDFFF7FE
:100AAC0035FEBDE870401448FFF724BD2B881A05AD
:100ABC00EAD50220EEE7402100204FF6FF364FF436
:100ACC00084443F230030F4AA5F8446011811180A9
:100ADC009481A5F850002A880120134083F44053D8
:100AEC0083F0200343F4024343F080032B80D1E7CF
:100AFC00180E0008005C0040C00D0008280E00080D
:100B0C00200E000800600040800000F1804000F5DD
:100B1C00B8400088704700BF024BB3F8440080B265
:100B2C00704700BF005C0040024BB3F84C0080B231
:100B3C00704700BF005C004008B5FFF771FDFFF780
:100B4C0053FCFFF779FCFFF7C3FDFFF70DFEFFF732
:100B5C00B5FDFFF761FCFFF7B1FDFFF765FCF6E7AC
:100B6C00002103E00B4B5B58435004310A480B4BFC
:100B7C0042189A42F6D30A4A02E0002342F8043B98
:100B8C00084B9A42F9D3FFF781FB00F00FF8FFF7FF
:100B9C00D3FF7047600E0008000000204C040020BA
:100BAC004C0400209C140020FEE7000070B50F4E92
:100BBC000F4D761BB61018BF002405D0013455F824
:100BCC00043B9847A642F9D10A4E0B4D00F030F980
:100BDC00761BB61018BF002406D0013455F8043B20
:100BEC009847A642F9D170BD70BD00BF540E0008E5
:100BFC00540E00085C0E0008540E0008024B13B192
:100C0C00024800F005B8704700000000290C0008ED
:100C1C00002301461A46184600F01EB838B50A4C97
:100C2C000A4D641BA4100AD004F18043013B05EB70
:100C3C008305013C55F804399847002CF9D1BDE8DF
:100C4C00384000F0FBB800BF600E00085C0E0008D6
:100C5C00704700BF704700BF2DE9F8432C4D064686
:100C6C00286898460F469146FFF7F2FF294B1C68FF
:100C7C00D4F84831002B3ED05A681F2A1CDC02F1F4
:100C8C00010E76B1012103EB8204C4F88890D3F8ED
:100C9C00880191400843022EC3F88801C4F80881EA
:100CAC0023D00232C3F804E0286843F82270FFF71F
:100CBC00D1FF0020BDE8F883174B0BB34FF4C8707D
:100CCC00AFF300800346D8B10020D4F848114FF0A0
:100CDC00010E586019600246C4F84831C3F8880107
:100CEC00C3F88C01002EDCD0CCE7D3F88C01014387
:100CFC00C3F88C11D5E704F5A673C4F84831BBE7EB
:100D0C002868FFF7A7FF4FF0FF30BDE8F88300BF5E
:100D1C0048040020380E0008000000003031323347
:100D2C00343536373839414243444546626D526555
:100D3C007175657374547970653A200062526571EF
:100D4C00756573743A2000007756616C75653A20AE
:100D5C000000000077496E6465783A2000000000BE
:100D6C00774C656E6774683A20000000476F7420FA
:100D7C00526573657420436F6D6D616E642E0A004D
:100D8C00476F7420536574757020436F6D6D616E81
:100D9C00642E0A0053656E742E2E2E0A000000007D
:100DAC004F7468657220555342206576656E743AAF
:100DBC00200000000A000000446562756767696ED8
:100DCC006720766961205553415254322E0A000037
:100DDC00202000005368757474696E6720446F7727
:100DEC006E205553422053657276696365732E0AE3
:100DFC000000000057616974696E6720746F20737E
:100E0C00656E64206F6E20455020000069453A20C5
:100E1C000000000069583A20000000004F7468651B
:100E2C00722073747566662E00000000200000208E
:100E3C00F8B500BFF8BC08BC9E467047F8B500BFBB
:080E4C00F8BC08BC9E4670478B
:080E5400090C0008310100083F
:040E5C000D0100087C
:100E6000000000000000000001020304060708095A
:100E700000A24A04FF0F0000FF0F00000000000066
:100E8000000000000C03002074030020DC0300209D
:100E90000000000000000000000000000000000052
:100EA0000000000000000000000000000000000042
:100EB0000000000000000000000000000000000032
:100EC0000000000000000000000000000000000022
:100ED0000000000000000000000000000000000012
:100EE0000000000000000000000000000000000002
:100EF00000000000000000000000000000000000F2
:100F000000000000000000000000000000000000E1
:100F100000000000000000000000000000000000D1
:100F200000000000000000000100000000000000C0
:100F30000E33CDAB34126DE6ECDE05000B00000085
:100F400000000000000000000000000000000000A1
:100F50000000000000000000000000000000000091
:100F60000000000000000000000000000000000081
:100F70000000000000000000000000000000000071
:0C12A00000000000000000007814002096
:0400000508000B6D77
:00000001FF
